{
  "contractName": "InstrumentRegistry",
  "abi": [
    {
      "constant": false,
      "inputs": [
        {
          "name": "fsp_address",
          "type": "address"
        },
        {
          "name": "instrument_address",
          "type": "address"
        },
        {
          "name": "expiration",
          "type": "uint256"
        }
      ],
      "name": "create",
      "outputs": [],
      "payable": false,
      "stateMutability": "nonpayable",
      "type": "function"
    },
    {
      "constant": false,
      "inputs": [
        {
          "name": "instrument_address",
          "type": "address"
        }
      ],
      "name": "deactivate",
      "outputs": [],
      "payable": false,
      "stateMutability": "nonpayable",
      "type": "function"
    },
    {
      "constant": true,
      "inputs": [
        {
          "name": "instrument_address",
          "type": "address"
        }
      ],
      "name": "validate",
      "outputs": [
        {
          "name": "",
          "type": "bool"
        }
      ],
      "payable": false,
      "stateMutability": "view",
      "type": "function"
    }
  ],
  "bytecode": "0x608060405234801561001057600080fd5b50610626806100206000396000f3fe608060405260043610610057576000357c0100000000000000000000000000000000000000000000000000000000900463ffffffff168063207c64fb1461005c5780633ea053eb146100c5578063ffe5725f14610116575b600080fd5b34801561006857600080fd5b506100ab6004803603602081101561007f57600080fd5b81019080803573ffffffffffffffffffffffffffffffffffffffff169060200190929190505050610191565b604051808215151515815260200191505060405180910390f35b3480156100d157600080fd5b50610114600480360360208110156100e857600080fd5b81019080803573ffffffffffffffffffffffffffffffffffffffff16906020019092919050505061020f565b005b34801561012257600080fd5b5061018f6004803603606081101561013957600080fd5b81019080803573ffffffffffffffffffffffffffffffffffffffff169060200190929190803573ffffffffffffffffffffffffffffffffffffffff1690602001909291908035906020019092919050505061026c565b005b6000806000808473ffffffffffffffffffffffffffffffffffffffff1673ffffffffffffffffffffffffffffffffffffffff16815260200190815260200160002090508060010160149054906101000a900460ff16801561020757508060020154816003015414806102065750428160030154105b5b915050919050565b60008060008373ffffffffffffffffffffffffffffffffffffffff1673ffffffffffffffffffffffffffffffffffffffff16815260200190815260200160002060010160146101000a81548160ff02191690831515021790555050565b600073ffffffffffffffffffffffffffffffffffffffff166000808473ffffffffffffffffffffffffffffffffffffffff1673ffffffffffffffffffffffffffffffffffffffff16815260200190815260200160002060000160009054906101000a900473ffffffffffffffffffffffffffffffffffffffff1673ffffffffffffffffffffffffffffffffffffffff1614151515610372576040517f08c379a00000000000000000000000000000000000000000000000000000000081526004018080602001828103825260198152602001807f496e737472756d656e7420616c7265616479206578697374730000000000000081525060200191505060405180910390fd5b60a0604051908101604052808373ffffffffffffffffffffffffffffffffffffffff1681526020018473ffffffffffffffffffffffffffffffffffffffff1681526020016001151581526020014281526020018242018152506000808473ffffffffffffffffffffffffffffffffffffffff1673ffffffffffffffffffffffffffffffffffffffff16815260200190815260200160002060008201518160000160006101000a81548173ffffffffffffffffffffffffffffffffffffffff021916908373ffffffffffffffffffffffffffffffffffffffff16021790555060208201518160010160006101000a81548173ffffffffffffffffffffffffffffffffffffffff021916908373ffffffffffffffffffffffffffffffffffffffff16021790555060408201518160010160146101000a81548160ff021916908315150217905550606082015181600201556080820151816003015590505082600160008573ffffffffffffffffffffffffffffffffffffffff1673ffffffffffffffffffffffffffffffffffffffff16815260200190815260200160002060000160006101000a81548173ffffffffffffffffffffffffffffffffffffffff021916908373ffffffffffffffffffffffffffffffffffffffff160217905550600160008473ffffffffffffffffffffffffffffffffffffffff1673ffffffffffffffffffffffffffffffffffffffff1681526020019081526020016000206001018290806001815401808255809150509060018203906000526020600020016000909192909190916101000a81548173ffffffffffffffffffffffffffffffffffffffff021916908373ffffffffffffffffffffffffffffffffffffffff1602179055505050505056fea165627a7a72305820bf75301e73698eb0d7c2475c758914bbff8b210e995588d8f282019c1d97a5800029",
  "source": "pragma solidity ^0.5.0;\n\ncontract InstrumentRegistry {\n    struct InstrumentStatus {\n        address instrument_address;\n        address creator;\n        bool active;\n        uint256 creation;\n        uint256 expiration;\n    }\n\n    struct FSPStatus {\n        address fsp_address;\n        address[] instrument_addresses;\n    }\n\n    mapping(address => InstrumentStatus) private _instruments;\n    mapping(address => FSPStatus) private _fsps;\n\n    function create(address fsp_address, address instrument_address, uint256 expiration) public {\n        require(_instruments[instrument_address].instrument_address != address(0x0), \"Instrument already exists\");\n        _instruments[instrument_address] = InstrumentStatus(instrument_address, fsp_address, true, now, now + expiration);\n        _fsps[fsp_address].fsp_address = fsp_address;\n        _fsps[fsp_address].instrument_addresses.push(instrument_address);\n    }\n\n    function deactivate(address instrument_address) public {\n        _instruments[instrument_address].active = false;\n    }\n\n    function validate(address instrument_address) public view returns (bool) {\n        InstrumentStatus storage status = _instruments[instrument_address];\n        // Either no expiry(expiration = creation) or not expire yet\n        return status.active && (status.expiration == status.creation || status.expiration < now);\n    }\n}",
  "sourcePath": "/Users/daphnedalala/git/nuts-platform/contracts/InstrumentRegistry.sol",
  "compiler": {
    "name": "solc",
    "version": "0.5.0+commit.1d4f565a.Emscripten.clang"
  },
  "schemaVersion": "3.0.6",
  "updatedAt": "2019-04-12T05:08:10.934Z",
  "devdoc": {
    "methods": {}
  },
  "userdoc": {
    "methods": {}
  }
}