{
  "contractName": "Issuance",
  "abi": [
    {
      "constant": false,
      "inputs": [
        {
          "name": "data",
          "type": "bytes"
        }
      ],
      "name": "loadProperties",
      "outputs": [],
      "payable": false,
      "stateMutability": "nonpayable",
      "type": "function"
    },
    {
      "constant": true,
      "inputs": [],
      "name": "saveProperties",
      "outputs": [
        {
          "name": "data",
          "type": "bytes"
        }
      ],
      "payable": false,
      "stateMutability": "view",
      "type": "function"
    },
    {
      "constant": false,
      "inputs": [
        {
          "name": "key",
          "type": "string"
        },
        {
          "name": "value",
          "type": "string"
        }
      ],
      "name": "setStringProperty",
      "outputs": [],
      "payable": false,
      "stateMutability": "nonpayable",
      "type": "function"
    },
    {
      "constant": true,
      "inputs": [
        {
          "name": "key",
          "type": "string"
        }
      ],
      "name": "getStringProperty",
      "outputs": [
        {
          "name": "data",
          "type": "string"
        }
      ],
      "payable": false,
      "stateMutability": "view",
      "type": "function"
    },
    {
      "constant": false,
      "inputs": [
        {
          "name": "key",
          "type": "string"
        },
        {
          "name": "value",
          "type": "int256"
        }
      ],
      "name": "setIntProperty",
      "outputs": [],
      "payable": false,
      "stateMutability": "nonpayable",
      "type": "function"
    },
    {
      "constant": true,
      "inputs": [
        {
          "name": "key",
          "type": "string"
        }
      ],
      "name": "getIntProperty",
      "outputs": [
        {
          "name": "data",
          "type": "int256"
        }
      ],
      "payable": false,
      "stateMutability": "view",
      "type": "function"
    },
    {
      "constant": false,
      "inputs": [
        {
          "name": "key",
          "type": "string"
        },
        {
          "name": "value",
          "type": "bool"
        }
      ],
      "name": "setBoolProperty",
      "outputs": [],
      "payable": false,
      "stateMutability": "nonpayable",
      "type": "function"
    },
    {
      "constant": true,
      "inputs": [
        {
          "name": "key",
          "type": "string"
        }
      ],
      "name": "getBoolProperty",
      "outputs": [
        {
          "name": "data",
          "type": "bool"
        }
      ],
      "payable": false,
      "stateMutability": "view",
      "type": "function"
    },
    {
      "constant": false,
      "inputs": [
        {
          "name": "key",
          "type": "string"
        },
        {
          "name": "value",
          "type": "uint256"
        }
      ],
      "name": "setUintProperty",
      "outputs": [],
      "payable": false,
      "stateMutability": "nonpayable",
      "type": "function"
    },
    {
      "constant": true,
      "inputs": [
        {
          "name": "key",
          "type": "string"
        }
      ],
      "name": "getUintProperty",
      "outputs": [
        {
          "name": "data",
          "type": "uint256"
        }
      ],
      "payable": false,
      "stateMutability": "view",
      "type": "function"
    },
    {
      "constant": false,
      "inputs": [
        {
          "name": "key",
          "type": "string"
        },
        {
          "name": "element",
          "type": "string"
        }
      ],
      "name": "addStringElement",
      "outputs": [],
      "payable": false,
      "stateMutability": "nonpayable",
      "type": "function"
    },
    {
      "constant": true,
      "inputs": [
        {
          "name": "key",
          "type": "string"
        },
        {
          "name": "index",
          "type": "uint256"
        }
      ],
      "name": "getStringElement",
      "outputs": [
        {
          "name": "element",
          "type": "string"
        }
      ],
      "payable": false,
      "stateMutability": "view",
      "type": "function"
    }
  ],
  "bytecode": "0x608060405234801561001057600080fd5b50612419806100206000396000f3fe6080604052600436106100ba576000357c0100000000000000000000000000000000000000000000000000000000900463ffffffff1680632b2d62c3146100bf5780633a218d9e1461014f578063444a73891461029a5780634631d3e71461036c5780637319755014610434578063b31d3a8414610510578063b506e55d146105ec578063b62c7d33146106c0578063c0c7342d146107a0578063c59496f7146108e1578063dbf6233114610a40578063decbfa2c14610b12575b600080fd5b3480156100cb57600080fd5b506100d4610c71565b6040518080602001828103825283818151815260200191508051906020019080838360005b838110156101145780820151818401526020810190506100f9565b50505050905090810190601f1680156101415780820380516001836020036101000a031916815260200191505b509250505060405180910390f35b34801561015b57600080fd5b5061021f6004803603604081101561017257600080fd5b810190808035906020019064010000000081111561018f57600080fd5b8201836020820111156101a157600080fd5b803590602001918460018302840111640100000000831117156101c357600080fd5b91908080601f016020809104026020016040519081016040528093929190818152602001838380828437600081840152601f19601f82011690508083019250505050505050919291929080359060200190929190505050610c82565b6040518080602001828103825283818151815260200191508051906020019080838360005b8381101561025f578082015181840152602081019050610244565b50505050905090810190601f16801561028c5780820380516001836020036101000a031916815260200191505b509250505060405180910390f35b3480156102a657600080fd5b5061036a600480360360408110156102bd57600080fd5b81019080803590602001906401000000008111156102da57600080fd5b8201836020820111156102ec57600080fd5b8035906020019184600183028401116401000000008311171561030e57600080fd5b91908080601f016020809104026020016040519081016040528093929190818152602001838380828437600081840152601f19601f82011690508083019250505050505050919291929080359060200190929190505050610dbd565b005b34801561037857600080fd5b506104326004803603602081101561038f57600080fd5b81019080803590602001906401000000008111156103ac57600080fd5b8201836020820111156103be57600080fd5b803590602001918460018302840111640100000000831117156103e057600080fd5b91908080601f016020809104026020016040519081016040528093929190818152602001838380828437600081840152601f19601f820116905080830192505050505050509192919290505050610dd7565b005b34801561044057600080fd5b506104fa6004803603602081101561045757600080fd5b810190808035906020019064010000000081111561047457600080fd5b82018360208201111561048657600080fd5b803590602001918460018302840111640100000000831117156104a857600080fd5b91908080601f016020809104026020016040519081016040528093929190818152602001838380828437600081840152601f19601f820116905080830192505050505050509192919290505050610dee565b6040518082815260200191505060405180910390f35b34801561051c57600080fd5b506105d66004803603602081101561053357600080fd5b810190808035906020019064010000000081111561055057600080fd5b82018360208201111561056257600080fd5b8035906020019184600183028401116401000000008311171561058457600080fd5b91908080601f016020809104026020016040519081016040528093929190818152602001838380828437600081840152601f19601f820116905080830192505050505050509192919290505050610e0b565b6040518082815260200191505060405180910390f35b3480156105f857600080fd5b506106be6004803603604081101561060f57600080fd5b810190808035906020019064010000000081111561062c57600080fd5b82018360208201111561063e57600080fd5b8035906020019184600183028401116401000000008311171561066057600080fd5b91908080601f016020809104026020016040519081016040528093929190818152602001838380828437600081840152601f19601f820116905080830192505050505050509192919290803515159060200190929190505050610e28565b005b3480156106cc57600080fd5b50610786600480360360208110156106e357600080fd5b810190808035906020019064010000000081111561070057600080fd5b82018360208201111561071257600080fd5b8035906020019184600183028401116401000000008311171561073457600080fd5b91908080601f016020809104026020016040519081016040528093929190818152602001838380828437600081840152601f19601f820116905080830192505050505050509192919290505050610e42565b604051808215151515815260200191505060405180910390f35b3480156107ac57600080fd5b50610866600480360360208110156107c357600080fd5b81019080803590602001906401000000008111156107e057600080fd5b8201836020820111156107f257600080fd5b8035906020019184600183028401116401000000008311171561081457600080fd5b91908080601f016020809104026020016040519081016040528093929190818152602001838380828437600081840152601f19601f820116905080830192505050505050509192919290505050610e5f565b6040518080602001828103825283818151815260200191508051906020019080838360005b838110156108a657808201518184015260208101905061088b565b50505050905090810190601f1680156108d35780820380516001836020036101000a031916815260200191505b509250505060405180910390f35b3480156108ed57600080fd5b50610a3e6004803603604081101561090457600080fd5b810190808035906020019064010000000081111561092157600080fd5b82018360208201111561093357600080fd5b8035906020019184600183028401116401000000008311171561095557600080fd5b91908080601f016020809104026020016040519081016040528093929190818152602001838380828437600081840152601f19601f820116905080830192505050505050509192919290803590602001906401000000008111156109b857600080fd5b8201836020820111156109ca57600080fd5b803590602001918460018302840111640100000000831117156109ec57600080fd5b91908080601f016020809104026020016040519081016040528093929190818152602001838380828437600081840152601f19601f820116905080830192505050505050509192919290505050610e7c565b005b348015610a4c57600080fd5b50610b1060048036036040811015610a6357600080fd5b8101908080359060200190640100000000811115610a8057600080fd5b820183602082011115610a9257600080fd5b80359060200191846001830284011164010000000083111715610ab457600080fd5b91908080601f016020809104026020016040519081016040528093929190818152602001838380828437600081840152601f19601f82011690508083019250505050505050919291929080359060200190929190505050610e96565b005b348015610b1e57600080fd5b50610c6f60048036036040811015610b3557600080fd5b8101908080359060200190640100000000811115610b5257600080fd5b820183602082011115610b6457600080fd5b80359060200191846001830284011164010000000083111715610b8657600080fd5b91908080601f016020809104026020016040519081016040528093929190818152602001838380828437600081840152601f19601f82011690508083019250505050505050919291929080359060200190640100000000811115610be957600080fd5b820183602082011115610bfb57600080fd5b80359060200191846001830284011164010000000083111715610c1d57600080fd5b91908080601f016020809104026020016040519081016040528093929190818152602001838380828437600081840152601f19601f820116905080830192505050505050509192919290505050610eb0565b005b6060610c7d6000611002565b905090565b6060610c9883600061153790919063ffffffff16565b1515610d0c576040517f08c379a00000000000000000000000000000000000000000000000000000000081526004018080602001828103825260168152602001807f546865206b657920646f6573206e6f742065786973740000000000000000000081525060200191505060405180910390fd5b6060610d228460006115b190919063ffffffff16565b9050828151111515610d9c576040517f08c379a00000000000000000000000000000000000000000000000000000000081526004018080602001828103825260168152602001807f54686520696e646578206f7574206f6620626f756e640000000000000000000081525060200191505060405180910390fd5b8083815181101515610daa57fe5b9060200190602002015191505092915050565b610dd38282600061172f9092919063ffffffff16565b5050565b610deb81600061178590919063ffffffff16565b50565b6000610e0482600061196790919063ffffffff16565b9050919050565b6000610e21826000611a0d90919063ffffffff16565b9050919050565b610e3e82826000611ab39092919063ffffffff16565b5050565b6000610e58826000611ad490919063ffffffff16565b9050919050565b6060610e75826000611b7390919063ffffffff16565b9050919050565b610e9282826000611c0f9092919063ffffffff16565b5050565b610eac82826000611c1f9092919063ffffffff16565b5050565b6060610ec683600061153790919063ffffffff16565b15610f91576060610ee18460006115b190919063ffffffff16565b90506001815101604051908082528060200260200182016040528015610f1b57816020015b6060815260200190600190039081610f065790505b50915060008090505b8151811015610f6d578181815181101515610f3b57fe5b906020019060200201518382815181101515610f5357fe5b906020019060200201819052508080600101915050610f24565b5082828251815181101515610f7e57fe5b9060200190602002018190525050610fe7565b6001604051908082528060200260200182016040528015610fc657816020015b6060815260200190600190039081610fb15790505b50905081816000815181101515610fd957fe5b906020019060200201819052505b610ffd83826000611c759092919063ffffffff16565b505050565b6060600080905060008090505b83600101805490508110156111b9576110e1846001018281548110151561103257fe5b90600052602060002090600202016000018054600181600116156101000203166002900480601f0160208091040260200160405190810160405280929190818152602001828054600181600116156101000203166002900480156110d75780601f106110ac576101008083540402835291602001916110d7565b820191906000526020600020905b8154815290600101906020018083116110ba57829003601f168201915b5050505050611d81565b820191506111a884600101828154811015156110f957fe5b90600052602060002090600202016001018054600181600116156101000203166002900480601f01602080910402602001604051908101604052809291908181526020018280546001816001161561010002031660029004801561119e5780601f106111735761010080835404028352916020019161119e565b820191906000526020600020905b81548152906001019060200180831161118157829003601f168201915b5050505050611d81565b82019150808060010191505061100f565b50806040519080825280601f01601f1916602001820160405280156111ed5781602001600182028038833980820191505090505b509150600081905060008090505b846001018054905081101561152f576112cf82866001018381548110151561121f57fe5b90600052602060002090600202016000018054600181600116156101000203166002900480601f0160208091040260200160405190810160405280929190818152602001828054600181600116156101000203166002900480156112c45780601f10611299576101008083540402835291602001916112c4565b820191906000526020600020905b8154815290600101906020018083116112a757829003601f168201915b505050505086611dc6565b61139285600101828154811015156112e357fe5b90600052602060002090600202016000018054600181600116156101000203166002900480601f0160208091040260200160405190810160405280929190818152602001828054600181600116156101000203166002900480156113885780601f1061135d57610100808354040283529160200191611388565b820191906000526020600020905b81548152906001019060200180831161136b57829003601f168201915b5050505050611d81565b8203915061145b8286600101838154811015156113ab57fe5b90600052602060002090600202016001018054600181600116156101000203166002900480601f0160208091040260200160405190810160405280929190818152602001828054600181600116156101000203166002900480156114505780601f1061142557610100808354040283529160200191611450565b820191906000526020600020905b81548152906001019060200180831161143357829003601f168201915b505050505086611dc6565b61151e856001018281548110151561146f57fe5b90600052602060002090600202016001018054600181600116156101000203166002900480601f0160208091040260200160405190810160405280929190818152602001828054600181600116156101000203166002900480156115145780601f106114e957610100808354040283529160200191611514565b820191906000526020600020905b8154815290600101906020018083116114f757829003601f168201915b5050505050611d81565b8203915080806001019150506111fb565b505050919050565b60008083600001836040518082805190602001908083835b602083101515611574578051825260208201915060208101905060208303925061154f565b6001836020036101000a03801982511681845116808217855250505050505090500191505090815260200160405180910390205411905092915050565b606082826115bf8282611537565b1515611633576040517f08c379a00000000000000000000000000000000000000000000000000000000081526004018080602001828103825260128152602001807f4b657920646f6573206e6f74206578697374000000000000000000000000000081525060200191505060405180910390fd5b606061163f8686611e2b565b905060008151905060006116538284611fe2565b90506020820391508060405190808252806020026020018201604052801561168f57816020015b606081526020019060019003908161167a5790505b50955060008090505b818110156117235760606116ac8486611ff0565b6040519080825280601f01601f1916602001820160405280156116de5781602001600182028038833980820191505090505b5090506116ec84868361201f565b6116f581611d81565b8403935080888381518110151561170857fe5b90602001906020020181905250508080600101915050611698565b50505050505092915050565b606060206040519080825280601f01601f1916602001820160405280156117655781602001600182028038833980820191505090505b50905061177460208383612078565b61177f848483612082565b50505050565b60008260010181611796919061228f565b506000815190506000600190505b60008211156119615760606117b98385611ff0565b6040519080825280601f01601f1916602001820160405280156117eb5781602001600182028038833980820191505090505b5090506117f983858361201f565b6118038385611ff0565b8303925060606118138486611ff0565b6040519080825280601f01601f1916602001820160405280156118455781602001600182028038833980820191505090505b50905061185384868361201f565b61185d8486611ff0565b84039350856001016040805190810160405280848152602001838152509080600181540180825580915050906001820390600052602060002090600202016000909192909190915060008201518160000190805190602001906118c19291906122c1565b5060208201518160010190805190602001906118de9291906122c1565b505050508286600001836040518082805190602001908083835b60208310151561191d57805182526020820191506020810190506020830392506118f8565b6001836020036101000a03801982511681845116808217855250505050505090500191505090815260200160405180910390208190555060018301925050506117a4565b50505050565b600082826119758282611537565b15156119e9576040517f08c379a00000000000000000000000000000000000000000000000000000000081526004018080602001828103825260128152602001807f4b657920646f6573206e6f74206578697374000000000000000000000000000081525060200191505060405180910390fd5b60606119f58686611e2b565b9050611a02815182612277565b935050505092915050565b60008282611a1b8282611537565b1515611a8f576040517f08c379a00000000000000000000000000000000000000000000000000000000081526004018080602001828103825260128152602001807f4b657920646f6573206e6f74206578697374000000000000000000000000000081525060200191505060405180910390fd5b6060611a9b8686611e2b565b9050611aa8815182611fe2565b935050505092915050565b611acf838383611ac4576000611ac7565b60015b60ff16611c1f565b505050565b60008282611ae28282611537565b1515611b56576040517f08c379a00000000000000000000000000000000000000000000000000000000081526004018080602001828103825260128152602001807f4b657920646f6573206e6f74206578697374000000000000000000000000000081525060200191505060405180910390fd5b6000611b628686611a0d565b905060018114935050505092915050565b60608282611b818282611537565b1515611bf5576040517f08c379a00000000000000000000000000000000000000000000000000000000081526004018080602001828103825260128152602001807f4b657920646f6573206e6f74206578697374000000000000000000000000000081525060200191505060405180910390fd5b6060611c018686611e2b565b905080935050505092915050565b611c1a838383612082565b505050565b606060206040519080825280601f01601f191660200182016040528015611c555781602001600182028038833980820191505090505b509050611c6460208383612285565b611c6f848483612082565b50505050565b60006020905060008090505b8251811015611cbb57611caa8382815181101515611c9b57fe5b90602001906020020151611d81565b820191508080600101915050611c81565b506060816040519080825280601f01601f191660200182016040528015611cf15781602001600182028038833980820191505090505b5090506000829050611d0581855184612285565b60208103905060008090505b8451811015611d6d57611d3c828683815181101515611d2c57fe5b9060200190602002015185611dc6565b611d5c8582815181101515611d4d57fe5b90602001906020020151611d81565b820391508080600101915050611d11565b50611d79868684612082565b505050505050565b600060208251811515611d9057fe5b049050600060208351811515611da257fe5b06141515611db35780806001019150505b8080600101915050602081029050919050565b600060208351811515611dd557fe5b049050600060208451811515611de757fe5b061115611df75780806001019150505b60018101905060005b81811015611e24576020810284015185840152602085039450600181019050611e00565b5050505050565b60608282611e398282611537565b1515611ead576040517f08c379a00000000000000000000000000000000000000000000000000000000081526004018080602001828103825260128152602001807f4b657920646f6573206e6f74206578697374000000000000000000000000000081525060200191505060405180910390fd5b84600101600186600001866040518082805190602001908083835b602083101515611eed5780518252602082019150602081019050602083039250611ec8565b6001836020036101000a03801982511681845116808217855250505050505090500191505090815260200160405180910390205403815481101515611f2e57fe5b90600052602060002090600202016001018054600181600116156101000203166002900480601f016020809104026020016040519081016040528092919081815260200182805460018160011615610100020316600290048015611fd35780601f10611fa857610100808354040283529160200191611fd3565b820191906000526020600020905b815481529060010190602001808311611fb657829003601f168201915b50505050509250505092915050565b600082820151905092915050565b6000828201519050600160208204016000602083061115612012576001810190505b6020810291505092915050565b60006020905060008484015191506001602083040190506000602083061115612049576001810190505b60005b8181101561207057858501516020820285015260208603955060018101905061204c565b505050505050565b8183820152505050565b600083600001836040518082805190602001908083835b6020831015156120be5780518252602082019150602081019050602083039250612099565b6001836020036101000a038019825116818451168082178552505050505050905001915050908152602001604051809103902054905060008114156121fc578360010160408051908101604052808581526020018481525090806001815401808255809150509060018203906000526020600020906002020160009091929091909150600082015181600001908051906020019061215d9291906122c1565b50602082015181600101908051906020019061217a9291906122c1565b50505050836001018054905084600001846040518082805190602001908083835b6020831015156121c0578051825260208201915060208101905060208303925061219b565b6001836020036101000a038019825116818451168082178552505050505050905001915050908152602001604051809103902081905550612271565b604080519081016040528084815260200183815250846001016001830381548110151561222557fe5b9060005260206000209060020201600082015181600001908051906020019061224f9291906122c1565b50602082015181600101908051906020019061226c9291906122c1565b509050505b50505050565b600082820151905092915050565b8183820152505050565b8154818355818111156122bc576002028160020283600052602060002091820191016122bb9190612341565b5b505050565b828054600181600116156101000203166002900490600052602060002090601f016020900481019282601f1061230257805160ff1916838001178555612330565b82800160010185558215612330579182015b8281111561232f578251825591602001919060010190612314565b5b50905061233d9190612380565b5090565b61237d91905b80821115612379576000808201600061236091906123a5565b60018201600061237091906123a5565b50600201612347565b5090565b90565b6123a291905b8082111561239e576000816000905550600101612386565b5090565b90565b50805460018160011615610100020316600290046000825580601f106123cb57506123ea565b601f0160209004906000526020600020908101906123e99190612380565b5b5056fea165627a7a72305820cc9a39d28e7321d5dcb4417842899be79ed7570044fb6bc69edb50614a126aff0029",
  "source": "pragma solidity ^0.5.0;\n\nimport \"./common/property/Property.sol\";\n\ncontract Issuance {\n    using Property for Property.Properties;\n\n    Property.Properties private _properties;\n\n\n    function loadProperties(bytes memory data) public {\n        _properties.load(data);\n    }\n\n    function saveProperties() public view returns (bytes memory data) {\n        data = _properties.save();\n    }\n\n    function setStringProperty(string memory key, string memory value) public {\n        _properties.setStringValue(key, value);\n    }\n\n    function getStringProperty(string memory key) public view returns (string memory data) {\n        data = _properties.getStringValue(key);\n    }\n\n    function setIntProperty(string memory key, int value) public {\n        _properties.setIntValue(key, value);\n    }\n\n    function getIntProperty(string memory key) public view returns (int data) {\n        data = _properties.getIntValue(key);\n    }\n\n    function setBoolProperty(string memory key, bool value) public {\n        _properties.setBoolValue(key, value);\n    }\n\n    function getBoolProperty(string memory key) public view returns (bool data) {\n        data = _properties.getBoolValue(key);\n    }\n\n    function setUintProperty(string memory key, uint value) public {\n        _properties.setUintValue(key, value);\n    }\n\n    function getUintProperty(string memory key) public view returns (uint data) {\n        data = _properties.getUintValue(key);\n    }\n\n    function addStringElement(string memory key, string memory element) public {\n        string[] memory list;\n        // TODO Any optimization on it?\n        if (_properties.containsKey(key)) {\n            string[] memory tmp = _properties.getStringArrayValue(key);\n            list = new string[](tmp.length + 1);\n            for (uint i = 0; i < tmp.length; i++) {\n                list[i] = tmp[i];\n            }\n            list[tmp.length] = element;\n        } else {\n            list = new string[](1);\n            list[0] = element;\n        }\n\n        _properties.setStringArrayValue(key, list);\n    }\n\n    function getStringElement(string memory key, uint index) public view returns (string memory element) {\n        require(_properties.containsKey(key), \"The key does not exist\");\n        string[] memory tmp = _properties.getStringArrayValue(key);\n        require(tmp.length > index, \"The index out of bound\");\n\n        element = tmp[index];\n    }\n}",
  "sourcePath": "/Users/daphnedalala/git/nuts-platform/contracts/Issuance.sol",
  "compiler": {
    "name": "solc",
    "version": "0.5.0+commit.1d4f565a.Emscripten.clang"
  },
  "schemaVersion": "3.0.6",
  "updatedAt": "2019-04-17T18:53:46.741Z",
  "devdoc": {
    "methods": {}
  },
  "userdoc": {
    "methods": {}
  }
}